:02000000972C3B
:10000800FF00030E8301B1000A08B2008A017008DC
:10001800A3007108A2007208A1007308A0000B1DBC
:10002800462806308100FB308B052708F000280899
:10003800F1002908F2002A08F300F00A0319F10A6E
:100048000319F20A0319F30A7008A7007108A80037
:100058007208A9007308AA002508013EF0000030C4
:100068000318013E2607F1007008A5007108A600D4
:1000780007302602031D4228D0302502031C4628DB
:10008800A501A6012308F0002208F1002108F200CA
:100098002008F30032088A00310E8300FF0E7F0E1D
:0200A80009004D
:1000AA00831203130F08F6000E08F7007608F4000F
:1000BA00F5017408F300F2017708F000F101720803
:0800CA00F0047308F1040800C2
:1000D20055207008E4007108E5005520640870029C
:1000E200F2006508031C013E7102F300630873020B
:1000F200031D7D2862087202031880286E280800FA
:10010200831203132708F9002808FA002908FB00C4
:100112002A08FC002708F5002808F6002908F7003D
:100122002A08F8007908F5027A08031C7A0FF60209
:100132007B08031C7B0FF7027C08031C7C0FF80270
:100142005F08F1006008F200F301F401740878021C
:10015200031DB52873087702031DB52872087602BD
:10016200031DB528710875020318B8288B280800EA
:100172003F3083120313870510300704F000DF308D
:0601820070058700080073
:100188001030831203130704F000DF307005870076
:0E01980040300704F0007F307005870008003B
:1001A600831203135F08FF3C0318DB28FF30DF00D0
:0A01B6005F089500CF3097050800A0
:1001C00055207008E0007108E1005F080805F100A3
:1001D0007108003A031D0129552060087002F200E1
:1001E0006108031C013E7102F3007308753C031D96
:1001F000FB287208303C03180029F001F10129297D
:10020000E52855207008E0007108E1005F08080546
:10021000F1007108003A0319222955206008700284
:10022000F2006108031C013E7102F3007308883C70
:10023000031D1C297208B83C03182129F001F101A3
:100240002929062955206008F002031CF1036108E2
:04025000F1020800AF
:10025400831203135F09F000700888050230E2007E
:100264000030E30069205F0888040F30E200E301F6
:0C02740069205F09F00070088805080090
:10028000831203135F08FF3C03184829FF30DF0087
:0A0290005F089B00CF309D050800B9
:10029A0083120313F801F9011030FC00710DF80DF7
:1002AA00F90D7408F8027508031C750FF902031892
:1002BA0065297408F80775080318750FF9070310FC
:0A02CA00F00DF10DFC0B53290800A4
:1002D40083120313861C71290130F1007229F10184
:0602E4007108F0000800A3
:1002EA00CF3083120313870540300704F0007F30B4
:0602FA00700587000800FA
:10030000831203135B08DF002A215C08DF00E02072
:100310007008DD007108DE0000307106031D9229AF
:1003200000307006031D9729F001F101A0293A3031
:10033000F4000030F5005D08F0005E08F1004D218A
:020340000800B3
:1003420083120313061CA8290130F100A929F10127
:060352007108F000080034
:10035800B920DF014021B430DF0040219030DF00B8
:100368000130E0008120C4203530DF0040213630E4
:06037800DF00D3200800A5
:0E037E008312031330088A002F088200080043
:10038C0083120313861ECD290130F100CE29F10111
:06039C007108F0000800EA
:0A03A2000F308312031387050800D3
:0A03AC00FB308312031386050800DE
:1003B6007521DF01D320B430DF00D3209030DF0079
:1003C6000130E0008120C4203530DF004021363086
:0603D600DF00D320080047
:1003DC0083120313DA0155085A020318172A560818
:1003EC00DF005708E00081200430DB000830DC001F
:1003FC0080217008D8007108D90000307106031DE7
:10040C00092A003070060319152A54085902031DD5
:10041C00112A53085802031C152ADA0A162ADA0183
:04042C00F1290800AA
:080430008312031306150800F6
:100438008312031308165308E2005408E3006920E6
:10044800EF3088055308203CE2005408031C013EA5
:080458004E3CE300692008009E
:1004600083120313061E372A0130F100382AF101E6
:060470007108F000080015
:100476006A217008D700A1217008D8005708013AF0
:10048600031D4B2A5808013A031D4B2AAC21742A36
:100496005708003A031D5D2A5808003A031D5D2AD5
:1004A600C42055085307DF00D32056085307DF0042
:1004B6004021742A5708013A031D6D2A5808003A4C
:1004C600031D6D2AB92056085407DF004021DF01BD
:1004D600D320742A752155085407DF00D320DF0185
:0404E60040210800A9
:1004EA00D1219630DF00E0018120C4202830DF00CE
:1004FA00D3202830DF0040212030DF000330E00025
:10050A008120DB21C4202830DF00D3202830DF00FF
:10051A004021C830DF00E0018120D121C830DF004E
:06052A00E0018120080041
:100530006A217008CE00A1217008CF004E08013A50
:10054000031DAE2A4F08013A031DAE2AC4204D08F0
:10055000DF00D3204D08DF004021DD2A4E08003A9D
:10056000031DC02A4F08003A031DC02AC4204B08AF
:100570004907DF00D3204C084907DF004021DD2A6E
:100580004E08013A031DD32A4F08003A031DD32A0F
:10059000B9204C084907DF002830DF07402149080F
:1005A000DF00D320DD2A75214B084907DF00283002
:0C05B000DF07D3204908DF0040210800CD
:1005BC00831203132708F1002808F2002908F3001E
:1005CC002A08F4002B08F1022C08031C2C0FF20251
:1005DC002D08031C2D0FF3022E08031C2E0FF40202
:1005EC0000307402031D042B00307302031D042B16
:1005FC0000307202031D042B0A3071020318082B01
:10060C00F001252B2708AB002808AC002908AD0009
:10061C002A08AE006A21700803191E2BA12170084C
:10062C0003191E2B1430240203181D2BA40A1F2B94
:10063C00A401053024020130031C0030F000080036
:10064C0083120313C901CA0100304A02031D302B67
:10065C003230490203183B2BD030D3000730D40082
:0C066C001C22C90A0319CA0A2A2B080024
:10067800C6217008CE0030227008CF004E08013A1B
:10068800031D582B4F08013A031D582BC4204C0852
:100698004907DF001430DF07D3204D084907DF0082
:1006A8001430DF074021852B4E08003A031D6E2BBE
:1006B8004F08003A031D6E2BC4204C084907DF0081
:1006C8001430DF07D3204D084907DF001430DF0757
:1006D8004021852B4E08013A031D7E2B4F08003A16
:1006E800031D7E2BB9204A08DF0040214B08DF009C
:1006F800D320852B75214A08DF00D3204B08DF0063
:040708004021080084
:10070C00831203134908003A031D8E2BDB218F2B18
:10071C00AC21C4204B084A07DF00D3204C084A0701
:10072C00DF0040211E30D3000030D4000330D50050
:0C073C001930D6000030D700EE21080074
:10074800831203134B08DF004C08E00081200430BB
:10075800DB000830DC0080217008CD007108CE0075
:1007680000307106031DBA2B003070060319C92B1F
:100778004E084A02031DC22B4D084902031CC92B0F
:100788004D08F0004E08F100CB2BF001F1010800F4
:10079800C730831203139F051E30E2000030E300C8
:1007A80069201F151F1DD92BD62B1E08F400F50133
:1007B8007408F300F20183161E08F000F1017208B4
:0807C800F0047308F1040800BD
:1007D0008312031349080319F72B03302602031D64
:1007E000F32BE83025020318F72B1822F82BD6211B
:0207F0000800FF
:1007F2000930831603138700073083129200FA3000
:10080200831692000C30831297000C309D009501E4
:0C0812009B01CF309705CF309D050800FA
:10081E0011308312031390008F018E01FE30831668
:0A082E008C05FE3083128C050800D3
:10083800BF218A110A128000840AAF0A0319B00A7C
:08084800F003031D1C2C080045
:100850000230831603138100063083128100FB30BF
:080860008B05A0308B04080099
:100868008316031305148E309F00813083129F0076
:0C0878003230E2000030E300692008008C
:100884000830831603130804F000FB307005880059
:08089400FB3083128805080007
:10089C00FB30831603138605FB3083128605080094
:1008AC00831203132708CF002808D0002908D10091
:1008BC002A08D2002708F5002808F6002908F700B6
:1008CC002A08F8004F08F5025008031C500FF602D6
:1008DC005108031C510FF7025208031C520FF80267
:1008EC004D08F1004E08F200F301F401740878028F
:1008FC00031D8A2C73087702031D8A2C720876025A
:10090C00031D8A2C710875020318962C4908D30014
:10091C004A08D4004B08D5004C08D6003B22602C6A
:02092C000800C1
:10092E0083120313A401A501A601A701A801A90121
:10093E00AA01AB01AC01AD01AE01B301B401B50129
:10094E00B601B701B801B901BA01BB01BC01BD01C5
:10095E00BE01BF01C001C101C201C301C401C50175
:10096E00C601C701C801033083168604033088040C
:10097E00EF308805EF3083128805703083168604B9
:10098E007F3086057F30831286054E24093083160C
:10099E008700831287012824F9230F24422434244C
:1009AE0000302A02031DE52C00302902031DE52C20
:1009BE000B302802031DE52CB83027020318E82C53
:1009CE00D72C8617C4203630DF00D3203530DF0019
:1009DE004021B430C900B430CA000430CB0003301B
:1009EE00CC009030CD000130CE0056241E30C90010
:1009FE001E30CA000430CB000330CC006430CD0072
:100A0E000030CE00562440300605F1007108003A41
:100A1E000319322F3908003A031D6A2D3230D300E4
:100A2E00B430D4000430D5000330D6003B22270862
:100A3E00F1002808F2002908F3002A08F400330810
:100A4E00F1023408031C340FF2023508031C350F73
:100A5E00F3023608031C360FF40200307402031D35
:100A6E00422D00307302031D422D00307202031D11
:100A7E00422D14307102031C692D2708B30028087B
:100A8E00B4002908B5002A08B600CC237108013C31
:100A9E00031D532D7008903C03185D2D14308312E6
:100AAE00370203185B2DB70AB801602D8312B70108
:100ABE00B80105303702031C692D0130B900B701AA
:100ACE00B8011822112D3908013A031DD82D4108FD
:100ADE00003A031D812DE630C900E630CA0004300D
:100AEE00CB000330CC008430CD000330CE00562432
:100AFE000130C1003230D300B430D4000430D50000
:100B0E000330D6003B222708F1002808F2002908FE
:100B1E00F3002A08F4003308F1023408031C340FE2
:100B2E00F2023508031C350FF3023608031C360F8C
:100B3E00F40200307402031DAE2D00307302031D4B
:100B4E00AE2D00307202031DAE2D14307102031C47
:100B5E00D72D2708B3002808B4002908B5002A08A5
:100B6E00B600CC237108013C031DBF2D7008903CCC
:100B7E00031CC92D1430831238020318C72DB80A6E
:100B8E00B701CC2D8312B801B70105303802031C12
:100B9E00D72D0230B900B801B701D6210130BA0005
:100BAE006A2D3908023A031D832E3A08013A031DB5
:100BBE00742E04303B020318742E3C08003A031DB9
:100BCE00F22D3B08023A0319F12D3B08033A0319A3
:100BDE00F12DF22D742E2708C2002808C300290813
:100BEE00C4002A08C500C601C4203630DF00D32059
:100BFE003530DF0040213B08373EF0000730031848
:100C0E00013EF1007008AF007108B000BF218A11DB
:100C1E000A12C9000030CA001930CB000030CC00D7
:100C2E00A42300307106031D1E2E0030700603191A
:100C3E00222EC60A232EC601023046020318282E83
:100C4E00FB2DC6013B08013A031D572E2708F10064
:100C5E002808F2002908F3002A08F4004208F102DD
:100C6E004308031C430FF2024408031C440FF30213
:100C7E004508031C450FF4027408003C031D512E59
:100C8E007308003C031D512E72080F3C031D512E9C
:100C9E007108A03C031C562E0130BC00572EBC011F
:100CAE003B08333EF00007300318013EF100700898
:100CBE00AF007108B000BF218A110A12C90032308C
:100CCE00CA000430CB000330CC008623BB0A39089F
:100CDE00033A031D732E742EDC2DC4203630DF0034
:100CEE00D3203530DF0040213230DF000030E0000D
:100CFE0081200330B900D82D3908033A031D312F56
:100D0E00C4203630DF00D3203530DF0040212708E5
:100D1E00BD002808BE002908BF002A08C0004708E9
:100D2E00031DDD2E2708F1002808F2002908F30024
:100D3E002A08F4003D08F1023E08031C3E0FF202A1
:100D4E003F08031C3F0FF3024008031C400FF40240
:100D5E007408003C031DBD2E7308003C031DBD2E00
:100D6E007208133C031DBD2E7108883C031CDD2E3A
:100D7E003230C900B430CA002830CB000430CC0069
:100D8E000330CD003C233230C900B430CA000430E9
:100D9E00CB000330CC002830CD009822C420363052
:100DAE00DF00D3203530DF004021962E4708031D8B
:100DBE00302F3230C900B430CA000430CB000330BB
:100DCE00CC002830CD0098224808031DF42EDE22D8
:100DDE0070080319F42E0130C800480803192F2F8C
:100DEE002708BD002808BE002908BF002A08C00039
:100DFE002708F1002808F2002908F3002A08F40059
:100E0E003D08F1023E08031C3E0FF2023F08031C90
:100E1E003F0FF3024008031C400FF402003074022F
:100E2E00031D232F00307302031D232F1730720270
:100E3E00031D232F703071020318292F4808C90093
:100E4E00E823FF2E75222623D621D1210130C7009B
:080E5E00DD2E302F112D322F83
:080E66000034003401340034B3
:080E6E0019341E341934193443
:02400E004A2F37
:00000001FF
